{
  "_format": "hh-sol-artifact-1",
  "contractName": "ERC721Demo",
  "sourceName": "contracts/ERC721demo.sol",
  "abi": [
    {
      "inputs": [
        {
          "internalType": "string",
          "name": "name_",
          "type": "string"
        },
        {
          "internalType": "string",
          "name": "symbol_",
          "type": "string"
        }
      ],
      "stateMutability": "nonpayable",
      "type": "constructor"
    },
    {
      "anonymous": false,
      "inputs": [
        {
          "indexed": true,
          "internalType": "address",
          "name": "owner",
          "type": "address"
        },
        {
          "indexed": true,
          "internalType": "address",
          "name": "approved",
          "type": "address"
        },
        {
          "indexed": true,
          "internalType": "uint256",
          "name": "tokenId",
          "type": "uint256"
        }
      ],
      "name": "Approval",
      "type": "event"
    },
    {
      "anonymous": false,
      "inputs": [
        {
          "indexed": true,
          "internalType": "address",
          "name": "owner",
          "type": "address"
        },
        {
          "indexed": true,
          "internalType": "address",
          "name": "operator",
          "type": "address"
        },
        {
          "indexed": false,
          "internalType": "bool",
          "name": "approved",
          "type": "bool"
        }
      ],
      "name": "ApprovalForAll",
      "type": "event"
    },
    {
      "anonymous": false,
      "inputs": [
        {
          "indexed": true,
          "internalType": "address",
          "name": "from",
          "type": "address"
        },
        {
          "indexed": true,
          "internalType": "address",
          "name": "to",
          "type": "address"
        },
        {
          "indexed": true,
          "internalType": "uint256",
          "name": "tokenId",
          "type": "uint256"
        }
      ],
      "name": "Transfer",
      "type": "event"
    },
    {
      "inputs": [
        {
          "internalType": "address",
          "name": "to",
          "type": "address"
        },
        {
          "internalType": "uint256",
          "name": "tokenId",
          "type": "uint256"
        }
      ],
      "name": "approve",
      "outputs": [],
      "stateMutability": "nonpayable",
      "type": "function"
    },
    {
      "inputs": [
        {
          "internalType": "address",
          "name": "owner",
          "type": "address"
        }
      ],
      "name": "balanceOf",
      "outputs": [
        {
          "internalType": "uint256",
          "name": "",
          "type": "uint256"
        }
      ],
      "stateMutability": "view",
      "type": "function"
    },
    {
      "inputs": [
        {
          "internalType": "uint256",
          "name": "tokenId",
          "type": "uint256"
        }
      ],
      "name": "getApproved",
      "outputs": [
        {
          "internalType": "address",
          "name": "",
          "type": "address"
        }
      ],
      "stateMutability": "view",
      "type": "function"
    },
    {
      "inputs": [
        {
          "internalType": "address",
          "name": "owner",
          "type": "address"
        },
        {
          "internalType": "address",
          "name": "operator",
          "type": "address"
        }
      ],
      "name": "isApprovedForAll",
      "outputs": [
        {
          "internalType": "bool",
          "name": "",
          "type": "bool"
        }
      ],
      "stateMutability": "view",
      "type": "function"
    },
    {
      "inputs": [
        {
          "internalType": "uint256",
          "name": "tokenId",
          "type": "uint256"
        }
      ],
      "name": "mint",
      "outputs": [],
      "stateMutability": "nonpayable",
      "type": "function"
    },
    {
      "inputs": [
        {
          "internalType": "uint256",
          "name": "tokenId",
          "type": "uint256"
        },
        {
          "internalType": "string",
          "name": "assetHash",
          "type": "string"
        },
        {
          "internalType": "string",
          "name": "tokenURI",
          "type": "string"
        }
      ],
      "name": "mintWithMetadata",
      "outputs": [],
      "stateMutability": "nonpayable",
      "type": "function"
    },
    {
      "inputs": [],
      "name": "name",
      "outputs": [
        {
          "internalType": "string",
          "name": "",
          "type": "string"
        }
      ],
      "stateMutability": "view",
      "type": "function"
    },
    {
      "inputs": [
        {
          "internalType": "uint256",
          "name": "tokenId",
          "type": "uint256"
        }
      ],
      "name": "ownerOf",
      "outputs": [
        {
          "internalType": "address",
          "name": "",
          "type": "address"
        }
      ],
      "stateMutability": "view",
      "type": "function"
    },
    {
      "inputs": [
        {
          "internalType": "address",
          "name": "from",
          "type": "address"
        },
        {
          "internalType": "address",
          "name": "to",
          "type": "address"
        },
        {
          "internalType": "uint256",
          "name": "tokenId",
          "type": "uint256"
        }
      ],
      "name": "safeTransferFrom",
      "outputs": [],
      "stateMutability": "nonpayable",
      "type": "function"
    },
    {
      "inputs": [
        {
          "internalType": "address",
          "name": "from",
          "type": "address"
        },
        {
          "internalType": "address",
          "name": "to",
          "type": "address"
        },
        {
          "internalType": "uint256",
          "name": "tokenId",
          "type": "uint256"
        },
        {
          "internalType": "bytes",
          "name": "data",
          "type": "bytes"
        }
      ],
      "name": "safeTransferFrom",
      "outputs": [],
      "stateMutability": "nonpayable",
      "type": "function"
    },
    {
      "inputs": [
        {
          "internalType": "address",
          "name": "operator",
          "type": "address"
        },
        {
          "internalType": "bool",
          "name": "approved",
          "type": "bool"
        }
      ],
      "name": "setApprovalForAll",
      "outputs": [],
      "stateMutability": "nonpayable",
      "type": "function"
    },
    {
      "inputs": [
        {
          "internalType": "bytes4",
          "name": "interfaceId",
          "type": "bytes4"
        }
      ],
      "name": "supportsInterface",
      "outputs": [
        {
          "internalType": "bool",
          "name": "",
          "type": "bool"
        }
      ],
      "stateMutability": "view",
      "type": "function"
    },
    {
      "inputs": [],
      "name": "symbol",
      "outputs": [
        {
          "internalType": "string",
          "name": "",
          "type": "string"
        }
      ],
      "stateMutability": "view",
      "type": "function"
    },
    {
      "inputs": [
        {
          "internalType": "uint256",
          "name": "tokenId",
          "type": "uint256"
        }
      ],
      "name": "tokenURI",
      "outputs": [
        {
          "internalType": "string",
          "name": "",
          "type": "string"
        }
      ],
      "stateMutability": "view",
      "type": "function"
    },
    {
      "inputs": [
        {
          "internalType": "address",
          "name": "from",
          "type": "address"
        },
        {
          "internalType": "address",
          "name": "to",
          "type": "address"
        },
        {
          "internalType": "uint256",
          "name": "tokenId",
          "type": "uint256"
        }
      ],
      "name": "transferFrom",
      "outputs": [],
      "stateMutability": "nonpayable",
      "type": "function"
    }
  ],
  "bytecode": "0x60806040523480156200001157600080fd5b5060405162001c8f38038062001c8f8339810160408190526200003491620001e1565b8151829082906200004d9060009060208501906200006e565b508051620000639060019060208401906200006e565b505050505062000288565b8280546200007c906200024b565b90600052602060002090601f016020900481019282620000a05760008555620000eb565b82601f10620000bb57805160ff1916838001178555620000eb565b82800160010185558215620000eb579182015b82811115620000eb578251825591602001919060010190620000ce565b50620000f9929150620000fd565b5090565b5b80821115620000f95760008155600101620000fe565b634e487b7160e01b600052604160045260246000fd5b600082601f8301126200013c57600080fd5b81516001600160401b038082111562000159576200015962000114565b604051601f8301601f19908116603f0116810190828211818310171562000184576200018462000114565b81604052838152602092508683858801011115620001a157600080fd5b600091505b83821015620001c55785820183015181830184015290820190620001a6565b83821115620001d75760008385830101525b9695505050505050565b60008060408385031215620001f557600080fd5b82516001600160401b03808211156200020d57600080fd5b6200021b868387016200012a565b935060208501519150808211156200023257600080fd5b5062000241858286016200012a565b9150509250929050565b600181811c908216806200026057607f821691505b602082108114156200028257634e487b7160e01b600052602260045260246000fd5b50919050565b6119f780620002986000396000f3fe608060405234801561001057600080fd5b50600436106100f55760003560e01c806370a0823111610097578063a22cb46511610066578063a22cb465146101ff578063b88d4fde14610212578063c87b56dd14610225578063e985e9c51461023857600080fd5b806370a08231146101b057806380b6d94b146101d157806395d89b41146101e4578063a0712d68146101ec57600080fd5b8063095ea7b3116100d3578063095ea7b31461016257806323b872dd1461017757806342842e0e1461018a5780636352211e1461019d57600080fd5b806301ffc9a7146100fa57806306fdde0314610122578063081812fc14610137575b600080fd5b61010d6101083660046114ec565b610274565b60405190151581526020015b60405180910390f35b61012a610311565b6040516101199190611561565b61014a610145366004611574565b6103a3565b6040516001600160a01b039091168152602001610119565b6101756101703660046115a9565b6103ca565b005b6101756101853660046115d3565b610501565b6101756101983660046115d3565b610588565b61014a6101ab366004611574565b6105a3565b6101c36101be36600461160f565b610608565b604051908152602001610119565b6101756101df3660046116d6565b6106a2565b61012a6107e0565b6101756101fa366004611574565b6107ef565b61017561020d366004611743565b61087d565b61017561022036600461177f565b61088c565b61012a610233366004611574565b61091a565b61010d6102463660046117fb565b6001600160a01b03918216600090815260056020908152604080832093909416825291909152205460ff1690565b60006001600160e01b031982167f80ac58cd0000000000000000000000000000000000000000000000000000000014806102d757506001600160e01b031982167f5b5e139f00000000000000000000000000000000000000000000000000000000145b8061030b57507f01ffc9a7000000000000000000000000000000000000000000000000000000006001600160e01b03198316145b92915050565b6060600080546103209061182e565b80601f016020809104026020016040519081016040528092919081815260200182805461034c9061182e565b80156103995780601f1061036e57610100808354040283529160200191610399565b820191906000526020600020905b81548152906001019060200180831161037c57829003601f168201915b5050505050905090565b60006103ae82610a2b565b506000908152600460205260409020546001600160a01b031690565b60006103d5826105a3565b9050806001600160a01b0316836001600160a01b031614156104645760405162461bcd60e51b815260206004820152602160248201527f4552433732313a20617070726f76616c20746f2063757272656e74206f776e6560448201527f720000000000000000000000000000000000000000000000000000000000000060648201526084015b60405180910390fd5b336001600160a01b038216148061048057506104808133610246565b6104f25760405162461bcd60e51b815260206004820152603e60248201527f4552433732313a20617070726f76652063616c6c6572206973206e6f7420746f60448201527f6b656e206f776e6572206e6f7220617070726f76656420666f7220616c6c0000606482015260840161045b565b6104fc8383610a8f565b505050565b61050b3382610b0a565b61057d5760405162461bcd60e51b815260206004820152602e60248201527f4552433732313a2063616c6c6572206973206e6f7420746f6b656e206f776e6560448201527f72206e6f7220617070726f766564000000000000000000000000000000000000606482015260840161045b565b6104fc838383610b88565b6104fc8383836040518060200160405280600081525061088c565b6000818152600260205260408120546001600160a01b03168061030b5760405162461bcd60e51b815260206004820152601860248201527f4552433732313a20696e76616c696420746f6b656e2049440000000000000000604482015260640161045b565b60006001600160a01b0382166106865760405162461bcd60e51b815260206004820152602960248201527f4552433732313a2061646472657373207a65726f206973206e6f74206120766160448201527f6c6964206f776e65720000000000000000000000000000000000000000000000606482015260840161045b565b506001600160a01b031660009081526003602052604090205490565b60008381526008602052604090205460ff16600114156107045760405162461bcd60e51b815260206004820152601760248201527f746f6b656e20494420616c726561647920657869737473000000000000000000604482015260640161045b565b60008381526008602052604090819020805460ff191660011790555160079061072e908490611869565b9081526040519081900360200190205460ff16600114156107915760405162461bcd60e51b815260206004820152601360248201527f6861736820616c72656164792065786973747300000000000000000000000000604482015260640161045b565b60016007836040516107a39190611869565b908152604051908190036020019020805460ff9290921660ff199092169190911790556107d66107d03390565b84610d62565b6104fc8382610d7c565b6060600180546103209061182e565b60008181526008602052604090205460ff16600114156108515760405162461bcd60e51b815260206004820152601760248201527f746f6b656e20494420616c726561647920657869737473000000000000000000604482015260640161045b565b6000818152600860205260409020805460ff1916600117905561087a6108743390565b82610d62565b50565b610888338383610e25565b5050565b6108963383610b0a565b6109085760405162461bcd60e51b815260206004820152602e60248201527f4552433732313a2063616c6c6572206973206e6f7420746f6b656e206f776e6560448201527f72206e6f7220617070726f766564000000000000000000000000000000000000606482015260840161045b565b61091484848484610ef4565b50505050565b606061092582610a2b565b6000828152600660205260408120805461093e9061182e565b80601f016020809104026020016040519081016040528092919081815260200182805461096a9061182e565b80156109b75780601f1061098c576101008083540402835291602001916109b7565b820191906000526020600020905b81548152906001019060200180831161099a57829003601f168201915b5050505050905060006109d560408051602081019091526000815290565b90508051600014156109e8575092915050565b815115610a1a578082604051602001610a02929190611885565b60405160208183030381529060405292505050919050565b610a2384610f72565b949350505050565b6000818152600260205260409020546001600160a01b031661087a5760405162461bcd60e51b815260206004820152601860248201527f4552433732313a20696e76616c696420746f6b656e2049440000000000000000604482015260640161045b565b6000818152600460205260409020805473ffffffffffffffffffffffffffffffffffffffff19166001600160a01b0384169081179091558190610ad1826105a3565b6001600160a01b03167f8c5be1e5ebec7d5bd14f71427d1e84f3dd0314c0f7b2291e5b200ac8c7c3b92560405160405180910390a45050565b600080610b16836105a3565b9050806001600160a01b0316846001600160a01b03161480610b5d57506001600160a01b0380821660009081526005602090815260408083209388168352929052205460ff165b80610a235750836001600160a01b0316610b76846103a3565b6001600160a01b031614949350505050565b826001600160a01b0316610b9b826105a3565b6001600160a01b031614610c175760405162461bcd60e51b815260206004820152602560248201527f4552433732313a207472616e736665722066726f6d20696e636f72726563742060448201527f6f776e6572000000000000000000000000000000000000000000000000000000606482015260840161045b565b6001600160a01b038216610c925760405162461bcd60e51b8152602060048201526024808201527f4552433732313a207472616e7366657220746f20746865207a65726f2061646460448201527f7265737300000000000000000000000000000000000000000000000000000000606482015260840161045b565b610c9d600082610a8f565b6001600160a01b0383166000908152600360205260408120805460019290610cc69084906118ca565b90915550506001600160a01b0382166000908152600360205260408120805460019290610cf49084906118e1565b9091555050600081815260026020526040808220805473ffffffffffffffffffffffffffffffffffffffff19166001600160a01b0386811691821790925591518493918716917fddf252ad1be2c89b69c2b068fc378daa952ba7f163c4a11628f55a4df523b3ef91a4505050565b610888828260405180602001604052806000815250610fe6565b6000828152600260205260409020546001600160a01b0316610e065760405162461bcd60e51b815260206004820152602e60248201527f45524337323155524953746f726167653a2055524920736574206f66206e6f6e60448201527f6578697374656e7420746f6b656e000000000000000000000000000000000000606482015260840161045b565b600082815260066020908152604090912082516104fc9284019061143d565b816001600160a01b0316836001600160a01b03161415610e875760405162461bcd60e51b815260206004820152601960248201527f4552433732313a20617070726f766520746f2063616c6c657200000000000000604482015260640161045b565b6001600160a01b03838116600081815260056020908152604080832094871680845294825291829020805460ff191686151590811790915591519182527f17307eab39ab6107e8899845ad3d59bd9653f200f220920489ca2b5937696c31910160405180910390a3505050565b610eff848484610b88565b610f0b84848484611064565b6109145760405162461bcd60e51b815260206004820152603260248201527f4552433732313a207472616e7366657220746f206e6f6e20455243373231526560448201527131b2b4bb32b91034b6b83632b6b2b73a32b960711b606482015260840161045b565b6060610f7d82610a2b565b6000610f9460408051602081019091526000815290565b90506000815111610fb45760405180602001604052806000815250610fdf565b80610fbe846111bc565b604051602001610fcf929190611885565b6040516020818303038152906040525b9392505050565b610ff083836112ee565b610ffd6000848484611064565b6104fc5760405162461bcd60e51b815260206004820152603260248201527f4552433732313a207472616e7366657220746f206e6f6e20455243373231526560448201527131b2b4bb32b91034b6b83632b6b2b73a32b960711b606482015260840161045b565b60006001600160a01b0384163b156111b157604051630a85bd0160e11b81526001600160a01b0385169063150b7a02906110a89033908990889088906004016118f9565b602060405180830381600087803b1580156110c257600080fd5b505af19250505080156110f2575060408051601f3d908101601f191682019092526110ef91810190611935565b60015b611197573d808015611120576040519150601f19603f3d011682016040523d82523d6000602084013e611125565b606091505b50805161118f5760405162461bcd60e51b815260206004820152603260248201527f4552433732313a207472616e7366657220746f206e6f6e20455243373231526560448201527131b2b4bb32b91034b6b83632b6b2b73a32b960711b606482015260840161045b565b805181602001fd5b6001600160e01b031916630a85bd0160e11b149050610a23565b506001949350505050565b6060816111fc57505060408051808201909152600181527f3000000000000000000000000000000000000000000000000000000000000000602082015290565b8160005b8115611226578061121081611952565b915061121f9050600a83611983565b9150611200565b60008167ffffffffffffffff8111156112415761124161162a565b6040519080825280601f01601f19166020018201604052801561126b576020820181803683370190505b5090505b8415610a23576112806001836118ca565b915061128d600a86611997565b6112989060306118e1565b60f81b8183815181106112ad576112ad6119ab565b60200101907effffffffffffffffffffffffffffffffffffffffffffffffffffffffffffff1916908160001a9053506112e7600a86611983565b945061126f565b6001600160a01b0382166113445760405162461bcd60e51b815260206004820181905260248201527f4552433732313a206d696e7420746f20746865207a65726f2061646472657373604482015260640161045b565b6000818152600260205260409020546001600160a01b0316156113a95760405162461bcd60e51b815260206004820152601c60248201527f4552433732313a20746f6b656e20616c7265616479206d696e74656400000000604482015260640161045b565b6001600160a01b03821660009081526003602052604081208054600192906113d29084906118e1565b9091555050600081815260026020526040808220805473ffffffffffffffffffffffffffffffffffffffff19166001600160a01b03861690811790915590518392907fddf252ad1be2c89b69c2b068fc378daa952ba7f163c4a11628f55a4df523b3ef908290a45050565b8280546114499061182e565b90600052602060002090601f01602090048101928261146b57600085556114b1565b82601f1061148457805160ff19168380011785556114b1565b828001600101855582156114b1579182015b828111156114b1578251825591602001919060010190611496565b506114bd9291506114c1565b5090565b5b808211156114bd57600081556001016114c2565b6001600160e01b03198116811461087a57600080fd5b6000602082840312156114fe57600080fd5b8135610fdf816114d6565b60005b8381101561152457818101518382015260200161150c565b838111156109145750506000910152565b6000815180845261154d816020860160208601611509565b601f01601f19169290920160200192915050565b602081526000610fdf6020830184611535565b60006020828403121561158657600080fd5b5035919050565b80356001600160a01b03811681146115a457600080fd5b919050565b600080604083850312156115bc57600080fd5b6115c58361158d565b946020939093013593505050565b6000806000606084860312156115e857600080fd5b6115f18461158d565b92506115ff6020850161158d565b9150604084013590509250925092565b60006020828403121561162157600080fd5b610fdf8261158d565b634e487b7160e01b600052604160045260246000fd5b600067ffffffffffffffff8084111561165b5761165b61162a565b604051601f8501601f19908116603f011681019082821181831017156116835761168361162a565b8160405280935085815286868601111561169c57600080fd5b858560208301376000602087830101525050509392505050565b600082601f8301126116c757600080fd5b610fdf83833560208501611640565b6000806000606084860312156116eb57600080fd5b83359250602084013567ffffffffffffffff8082111561170a57600080fd5b611716878388016116b6565b9350604086013591508082111561172c57600080fd5b50611739868287016116b6565b9150509250925092565b6000806040838503121561175657600080fd5b61175f8361158d565b91506020830135801515811461177457600080fd5b809150509250929050565b6000806000806080858703121561179557600080fd5b61179e8561158d565b93506117ac6020860161158d565b925060408501359150606085013567ffffffffffffffff8111156117cf57600080fd5b8501601f810187136117e057600080fd5b6117ef87823560208401611640565b91505092959194509250565b6000806040838503121561180e57600080fd5b6118178361158d565b91506118256020840161158d565b90509250929050565b600181811c9082168061184257607f821691505b6020821081141561186357634e487b7160e01b600052602260045260246000fd5b50919050565b6000825161187b818460208701611509565b9190910192915050565b60008351611897818460208801611509565b8351908301906118ab818360208801611509565b01949350505050565b634e487b7160e01b600052601160045260246000fd5b6000828210156118dc576118dc6118b4565b500390565b600082198211156118f4576118f46118b4565b500190565b60006001600160a01b0380871683528086166020840152508360408301526080606083015261192b6080830184611535565b9695505050505050565b60006020828403121561194757600080fd5b8151610fdf816114d6565b6000600019821415611966576119666118b4565b5060010190565b634e487b7160e01b600052601260045260246000fd5b6000826119925761199261196d565b500490565b6000826119a6576119a661196d565b500690565b634e487b7160e01b600052603260045260246000fdfea26469706673582212204fe15cc87606a4328fe0a9be53aa9e7a546a9e7bcbf70d02cbc9ab472059b29d64736f6c63430008090033",
  "linkReferences": {},
  "deployedLinkReferences": {}
}